:02000000312AA3
:0C000600000000000000000000000800E6
:10001200243083120313FC00B530FD00FD0B0F28C2
:0A002200FC0B0F280000000008008E
:0E002C00533083120313FD00FD0B1A28080049
:10003A0083120317981B2328861324288617181B54
:10004A002828061329280617981A2D2886122E28DA
:10005A008616181A32280612332806168316031330
:10006A006D183A28831206143C2883120610861447
:10007A0003208610031798194428861345288617E3
:10008A001819492806134A28061798184E2886125E
:10009A004F2886161818532806125428061683164F
:1000AA0003136D185B28831206145D288312061049
:1000BA0086140320861083166D1C6528092066287D
:0400CA0016200800F4
:1000CE00103083120313FD00FD0B6B280000080097
:1000DE008312031793019501960110309700043097
:1000EE0016020318A428F030031387008030F000A6
:1000FE007008073E840003171709F000700880008F
:10010E00032003200F3003130705F00070080317B8
:10011E009400700803199E281508930014080319FB
:10012E009C28940C9413930A952804309600970DEE
:10013E00171004309507960A76281308F000080069
:10014E00831603136D1083120317130898001D20D6
:06015E0083166D14080079
:0E0164008316031366088A00650882000800EF
:10017200CB288030831203179000DE28C030900015
:10018200DE2894309000DE28D4309000DE288030C3
:100192009000DE28831203171008013A0319BA28C7
:1001A2001008023A0319BF281008033A0319C2289B
:1001B2001008043A0319C528C8281103F0001008D2
:1001C200F00770089000831603136D1470088312F1
:1001D200031798001D2083166D108312031712084F
:0A01E20098001D2083166D1408001C
:1001EC00B2208A110A128000840AE50A0319E60A71
:0801FC00F003031DF6280800C2
:100204006F20700883160313EF000F308312070565
:10021400F00003190F296720072983166F08F000DF
:020224000800D0
:1002260083120317100884000008031927291008F1
:1002360084000008F1001108840071080006031DFF
:100246002729900A910A1329100884000008F00053
:10025600110884000008F002F101031CF1030800F4
:10026600803083120313F0007008073E8400FF30CD
:0402760080000800FC
:10027A006429313083120313F10096293230F100D8
:10028A0096293330F10096293430F1009629353019
:10029A00F10096293630F10096293730F100962977
:1002AA003830F10096293930F10096292A30F100C8
:1002BA0096293030F10096292330F10096298316C9
:1002CA0003136F08013A03193E296F08023A03190A
:1002DA0043296F08033A031946296F08053A031997
:1002EA0049296F08063A03194C296F08073A031976
:1002FA004F296F08093A031952296F080A3A031954
:10030A0055296F080B3A031958296F080D3A031932
:10031A005B296F080E3A03195E296F080F3A031911
:08032A0061297108F0000800D0
:1003320083160313861006100612861206138613FE
:1003420083128610061086130613861206120920DF
:100352000920092086160616861403208610092015
:100362008614032086100920861403208610092093
:100372000612861403208610092086140320861094
:100382008612861786140320861009208613061605
:100392008614032086100612861403208610092074
:1003A2008614032086100616861403208610092060
:1003B200061286140320861086170617861606165E
:0E03C200861403208610092083166D1408008F
:1003D000FA2980308312031790000D2AC030900054
:1003E0000D2A943090000D2AD43090000D2A8030D0
:1003F00090000D2A831203171008013A0319E92906
:100400001008023A0319EE291008033A0319F129DA
:100410001008043A0319F429F7291103F000100811
:10042000F00770089000700898001D2083166D106A
:10043000EF016F08831203171207840000080319E5
:100440002D2A831603136F088312031712078400E3
:1004500000089300A720EF0A192A831603136D14CE
:02046000080092
:10046200002483160313880183120810881099212F
:1004720033210130031798001D200C300317980018
:100482001D200130031790000130910020309200AE
:10049200E8211A30FB005E30FC006E30FD00FD0BDF
:1004A200502AFC0B502AFB0B502A00000130831209
:1004B200031798001D200C30031798001D200130EF
:1004C20003179000013091003A309200E821022196
:1004D2007008DC000330FB008A30FC005530FD0060
:1004E200FD0B712AFC0B712AFB0B712A0000000024
:1004F2005C08003A0319BC2A5C08EF003D21831214
:1005020003137008233A031D9A2A01300317980037
:100512001D2001300317900001309100CB30920072
:10052200E8218312081088108316CA01E301E4014E
:10053200BC2A83164A08E73EEE005C08EF003D2124
:10054200831603136E088400700880000230831241
:1005520003179000831603134A0A831203179100AC
:10056200831603134A08E73E840000088312031728
:100572009200B920CA0A80304A06F0008030053A5B
:100582007002031C682ADD30831203179000E730E3
:100592009100132100307106031DD12A003070062C
:1005A200031DFF2A013098001D200C30031798000C
:1005B2001D2001300317900001309100A0309200FD
:1005C200E8210230831203179000013091005B3062
:1005D2009200E821831208143330FB00BB30FC0088
:1005E200DF30FD00FD0BF32AFC0BF32AFB0BF32A91
:1005F200000000008316E301E4012D2B0130831279
:10060200031798001D200C30031798001D2001309D
:1006120003179000013091004B309200E821023024
:1006220083120317900001309100BE309200E8213E
:10063200831208103330FB00BB30FC00DF30FD00BA
:10064200FD0B212BFC0B212BFB0B212B00000000AF
:100652008316E30A0319E40A00306406031D332BF0
:1006620003306306031D522B0130831203179800D7
:100672001D200C30031798001D2001300317900035
:100682000130910066309200E82102308312031794
:10069200900001309100B1309200E8218312881459
:1006A200652B83120130031798001D200C300317AD
:1006B20098001D200130031790000130910029306D
:0A06C2009200E821CA01682A652BA6
:1008000020308400463083120313F0006B308316CF
:10081000E5000330E600F620A03084001E3003130C
:10082000F000D8308316E5000330E600F62066308D
:1008300084000A300313F000F6308316E50003301D
:10084000E600F620BE30840027300313F000B130FC
:0C0850008316E5000330E600F6200800E7
:1006D600483465346C346C346F345E345F345E3465
:0206E6000034DE
:1006E80045346E3474346534723420345034613493
:1006F8007334733477346F34723464343A34203456
:020708000034BB
:10070A0045346E3474346534723420345034613470
:10071A007334733477346F34723464343A34203433
:02072A00003499
:10072C00573472346F346E3467342034503461343F
:10073C007334733477346F3472346434213400344A
:10074C00573465346C3463346F346D3465345E34D3
:06075C005F345E3400343E
:1007620054347234793420346134673461346934F6
:080772006E342E342E340034E5
:02077A00003449
:10077C0045346E34743465347234203450346134FE
:10078C007334733477346F34723464343A342034C1
:02079C00003427
:02079E00003425
:0C07A00031343234333434343534003416
:0407AC0000340034E1
:1007B00043346F34723472346534633474342034A7
:1007C000503461347334733477346F347234643436
:0207D0000034F3
:1007D200733479347334743465346D342034623450
:0A07E2007234653461346B34003466
:1007EC007734613472346E3469346E346734213446
:0407FC002134003470
:02400E004A2F37
:00000001FF
